{
  "contractName": "Staking",
  "abi": [
    {
      "inputs": [
        {
          "internalType": "address",
          "name": "_stakingToken",
          "type": "address"
        },
        {
          "internalType": "address",
          "name": "_rewardsToken",
          "type": "address"
        },
        {
          "internalType": "uint256",
          "name": "_rewardRate",
          "type": "uint256"
        }
      ],
      "stateMutability": "nonpayable",
      "type": "constructor"
    },
    {
      "inputs": [],
      "name": "lastUpdateTime",
      "outputs": [
        {
          "internalType": "uint256",
          "name": "",
          "type": "uint256"
        }
      ],
      "stateMutability": "view",
      "type": "function",
      "constant": true
    },
    {
      "inputs": [],
      "name": "rewardPerTokenStored",
      "outputs": [
        {
          "internalType": "uint256",
          "name": "",
          "type": "uint256"
        }
      ],
      "stateMutability": "view",
      "type": "function",
      "constant": true
    },
    {
      "inputs": [],
      "name": "rewardRate",
      "outputs": [
        {
          "internalType": "uint256",
          "name": "",
          "type": "uint256"
        }
      ],
      "stateMutability": "view",
      "type": "function",
      "constant": true
    },
    {
      "inputs": [
        {
          "internalType": "address",
          "name": "",
          "type": "address"
        }
      ],
      "name": "rewards",
      "outputs": [
        {
          "internalType": "uint256",
          "name": "",
          "type": "uint256"
        }
      ],
      "stateMutability": "view",
      "type": "function",
      "constant": true
    },
    {
      "inputs": [],
      "name": "rewardsToken",
      "outputs": [
        {
          "internalType": "contract IERC20",
          "name": "",
          "type": "address"
        }
      ],
      "stateMutability": "view",
      "type": "function",
      "constant": true
    },
    {
      "inputs": [],
      "name": "stakingToken",
      "outputs": [
        {
          "internalType": "contract IERC20",
          "name": "",
          "type": "address"
        }
      ],
      "stateMutability": "view",
      "type": "function",
      "constant": true
    },
    {
      "inputs": [
        {
          "internalType": "address",
          "name": "",
          "type": "address"
        }
      ],
      "name": "userRewardPerTokenPaid",
      "outputs": [
        {
          "internalType": "uint256",
          "name": "",
          "type": "uint256"
        }
      ],
      "stateMutability": "view",
      "type": "function",
      "constant": true
    },
    {
      "inputs": [
        {
          "internalType": "uint256",
          "name": "_amount",
          "type": "uint256"
        }
      ],
      "name": "stake",
      "outputs": [],
      "stateMutability": "nonpayable",
      "type": "function"
    },
    {
      "inputs": [],
      "name": "withdraw",
      "outputs": [],
      "stateMutability": "nonpayable",
      "type": "function"
    },
    {
      "inputs": [],
      "name": "claim",
      "outputs": [],
      "stateMutability": "nonpayable",
      "type": "function"
    },
    {
      "inputs": [
        {
          "internalType": "uint256",
          "name": "_rate",
          "type": "uint256"
        }
      ],
      "name": "setRewardRate",
      "outputs": [],
      "stateMutability": "nonpayable",
      "type": "function"
    }
  ],
  "bytecode": "0x60806040523480156200001157600080fd5b5060405162001014380380620010148339818101604052810190620000379190620000f6565b82600160006101000a81548173ffffffffffffffffffffffffffffffffffffffff021916908373ffffffffffffffffffffffffffffffffffffffff160217905550816000806101000a81548173ffffffffffffffffffffffffffffffffffffffff021916908373ffffffffffffffffffffffffffffffffffffffff16021790555080600281905550505050620001be565b600081519050620000d9816200018a565b92915050565b600081519050620000f081620001a4565b92915050565b6000806000606084860312156200010c57600080fd5b60006200011c86828701620000c8565b93505060206200012f86828701620000c8565b92505060406200014286828701620000df565b9150509250925092565b6000620001598262000160565b9050919050565b600073ffffffffffffffffffffffffffffffffffffffff82169050919050565b6000819050919050565b62000195816200014c565b8114620001a157600080fd5b50565b620001af8162000180565b8114620001bb57600080fd5b50565b610e4680620001ce6000396000f3fe608060405234801561001057600080fd5b50600436106100a95760003560e01c80638b876347116100715780638b8763471461012e5780639e447fc61461015e578063a694fc3a1461017a578063c8f33c9114610196578063d1af0c7d146101b4578063df136d65146101d2576100a9565b80630700037d146100ae5780633ccfd60b146100de5780634e71d92d146100e857806372f702f3146100f25780637b0a47ee14610110575b600080fd5b6100c860048036038101906100c39190610a9c565b6101f0565b6040516100d59190610b88565b60405180910390f35b6100e6610208565b005b6100f06103fe565b005b6100fa6105f1565b6040516101079190610b6d565b60405180910390f35b610118610617565b6040516101259190610b88565b60405180910390f35b61014860048036038101906101439190610a9c565b61061d565b6040516101559190610b88565b60405180910390f35b61017860048036038101906101739190610aee565b610635565b005b610194600480360381019061018f9190610aee565b61063f565b005b61019e610a2d565b6040516101ab9190610b88565b60405180910390f35b6101bc610a33565b6040516101c99190610b6d565b60405180910390f35b6101da610a57565b6040516101e79190610b88565b60405180910390f35b60066020528060005260406000206000915090505481565b600d60003373ffffffffffffffffffffffffffffffffffffffff1673ffffffffffffffffffffffffffffffffffffffff168152602001908152602001600020600001546008600082825461025c9190610c84565b925050819055506000600d60003373ffffffffffffffffffffffffffffffffffffffff1673ffffffffffffffffffffffffffffffffffffffff1681526020019081526020016000206000015490506000600d60003373ffffffffffffffffffffffffffffffffffffffff1673ffffffffffffffffffffffffffffffffffffffff168152602001908152602001600020600001819055506213c680600d60003373ffffffffffffffffffffffffffffffffffffffff1673ffffffffffffffffffffffffffffffffffffffff168152602001908152602001600020600201546103439190610ba3565b4211156103fb57600160009054906101000a900473ffffffffffffffffffffffffffffffffffffffff1673ffffffffffffffffffffffffffffffffffffffff1663a9059cbb33836040518363ffffffff1660e01b81526004016103a7929190610b44565b602060405180830381600087803b1580156103c157600080fd5b505af11580156103d5573d6000803e3d6000fd5b505050506040513d601f19601f820116820180604052508101906103f99190610ac5565b505b50565b6213c680600d60003373ffffffffffffffffffffffffffffffffffffffff1673ffffffffffffffffffffffffffffffffffffffff1681526020019081526020016000206001015461044f9190610ba3565b4211156105ef5760006064600d60003373ffffffffffffffffffffffffffffffffffffffff1673ffffffffffffffffffffffffffffffffffffffff16815260200190815260200160002060030154600d60003373ffffffffffffffffffffffffffffffffffffffff1673ffffffffffffffffffffffffffffffffffffffff168152602001908152602001600020600001546104ea9190610c2a565b6104f49190610bf9565b9050600160009054906101000a900473ffffffffffffffffffffffffffffffffffffffff1673ffffffffffffffffffffffffffffffffffffffff1663a9059cbb33836040518363ffffffff1660e01b8152600401610553929190610b44565b602060405180830381600087803b15801561056d57600080fd5b505af1158015610581573d6000803e3d6000fd5b505050506040513d601f19601f820116820180604052508101906105a59190610ac5565b5042600d60003373ffffffffffffffffffffffffffffffffffffffff1673ffffffffffffffffffffffffffffffffffffffff16815260200190815260200160002060010181905550505b565b600160009054906101000a900473ffffffffffffffffffffffffffffffffffffffff1681565b60025481565b60056020528060005260406000206000915090505481565b8060028190555050565b3360008080600090505b600b80549050811015610709578373ffffffffffffffffffffffffffffffffffffffff16600b82815481106106a7577f4e487b7100000000000000000000000000000000000000000000000000000000600052603260045260246000fd5b9060005260206000200160009054906101000a900473ffffffffffffffffffffffffffffffffffffffff1673ffffffffffffffffffffffffffffffffffffffff1614156106f657600192508091505b808061070190610d24565b915050610649565b50811561077857600b818154811061074a577f4e487b7100000000000000000000000000000000000000000000000000000000600052603260045260246000fd5b9060005260206000200160006101000a81549073ffffffffffffffffffffffffffffffffffffffff02191690555b836008600082825461078a9190610ba3565b92505081905550600b339080600181540180825580915050600190039060005260206000200160009091909190916101000a81548173ffffffffffffffffffffffffffffffffffffffff021916908373ffffffffffffffffffffffffffffffffffffffff16021790555083600d60003373ffffffffffffffffffffffffffffffffffffffff1673ffffffffffffffffffffffffffffffffffffffff16815260200190815260200160002060000160008282546108469190610ba3565b92505081905550600254600d60003373ffffffffffffffffffffffffffffffffffffffff1673ffffffffffffffffffffffffffffffffffffffff16815260200190815260200160002060030181905550600d60003373ffffffffffffffffffffffffffffffffffffffff1673ffffffffffffffffffffffffffffffffffffffff16815260200190815260200160002060040160009054906101000a900460ff166109325742600d60003373ffffffffffffffffffffffffffffffffffffffff1673ffffffffffffffffffffffffffffffffffffffff168152602001908152602001600020600201819055505b42600d60003373ffffffffffffffffffffffffffffffffffffffff1673ffffffffffffffffffffffffffffffffffffffff1681526020019081526020016000206001018190555060008054906101000a900473ffffffffffffffffffffffffffffffffffffffff1673ffffffffffffffffffffffffffffffffffffffff1663a9059cbb33866040518363ffffffff1660e01b81526004016109d4929190610b44565b602060405180830381600087803b1580156109ee57600080fd5b505af1158015610a02573d6000803e3d6000fd5b505050506040513d601f19601f82011682018060405250810190610a269190610ac5565b5050505050565b60035481565b60008054906101000a900473ffffffffffffffffffffffffffffffffffffffff1681565b60045481565b600081359050610a6c81610dcb565b92915050565b600081519050610a8181610de2565b92915050565b600081359050610a9681610df9565b92915050565b600060208284031215610aae57600080fd5b6000610abc84828501610a5d565b91505092915050565b600060208284031215610ad757600080fd5b6000610ae584828501610a72565b91505092915050565b600060208284031215610b0057600080fd5b6000610b0e84828501610a87565b91505092915050565b610b2081610cb8565b82525050565b610b2f81610d00565b82525050565b610b3e81610cf6565b82525050565b6000604082019050610b596000830185610b17565b610b666020830184610b35565b9392505050565b6000602082019050610b826000830184610b26565b92915050565b6000602082019050610b9d6000830184610b35565b92915050565b6000610bae82610cf6565b9150610bb983610cf6565b9250827fffffffffffffffffffffffffffffffffffffffffffffffffffffffffffffffff03821115610bee57610bed610d6d565b5b828201905092915050565b6000610c0482610cf6565b9150610c0f83610cf6565b925082610c1f57610c1e610d9c565b5b828204905092915050565b6000610c3582610cf6565b9150610c4083610cf6565b9250817fffffffffffffffffffffffffffffffffffffffffffffffffffffffffffffffff0483118215151615610c7957610c78610d6d565b5b828202905092915050565b6000610c8f82610cf6565b9150610c9a83610cf6565b925082821015610cad57610cac610d6d565b5b828203905092915050565b6000610cc382610cd6565b9050919050565b60008115159050919050565b600073ffffffffffffffffffffffffffffffffffffffff82169050919050565b6000819050919050565b6000610d0b82610d12565b9050919050565b6000610d1d82610cd6565b9050919050565b6000610d2f82610cf6565b91507fffffffffffffffffffffffffffffffffffffffffffffffffffffffffffffffff821415610d6257610d61610d6d565b5b600182019050919050565b7f4e487b7100000000000000000000000000000000000000000000000000000000600052601160045260246000fd5b7f4e487b7100000000000000000000000000000000000000000000000000000000600052601260045260246000fd5b610dd481610cb8565b8114610ddf57600080fd5b50565b610deb81610cca565b8114610df657600080fd5b50565b610e0281610cf6565b8114610e0d57600080fd5b5056fea264697066735822122008ef99d7bd520f31166e44b25a18ea9d855eac415734a1bbc9f3403ba9c0d1a864736f6c63430008000033",
  "immutableReferences": {},
  "source": "// SPDX-License-Identifier: MIT\r\n\r\npragma solidity ^0.8;\r\npragma experimental ABIEncoderV2;\r\n\r\ncontract Staking {\r\n    IERC20 public rewardsToken;\r\n    IERC20 public stakingToken;\r\n\r\n    uint public rewardRate;\r\n    uint public lastUpdateTime;\r\n    uint public rewardPerTokenStored;\r\n\r\n    mapping(address => uint) public userRewardPerTokenPaid;\r\n    mapping(address => uint) public rewards;\r\n    mapping(address => uint) private _rates;\r\n    \r\n    uint private _totalSupply;\r\n    mapping(address => uint) private _balances;\r\n    mapping(address => uint256) private _stakedTime;\r\n    \r\n    struct StakingItem {\r\n        uint _balance;\r\n        uint256 _updated_at;\r\n        uint256 _created_at;\r\n        uint _rate;\r\n        bool isExisted;\r\n    }\r\n    \r\n    address[] private _stakedAddressList;\r\n    uint256 private _totalStakedUserCount;\r\n    mapping(address => StakingItem) private _stakingList;\r\n    \r\n    constructor(address _stakingToken, address _rewardsToken, uint _rewardRate) {\r\n        stakingToken = IERC20(_stakingToken);\r\n        rewardsToken = IERC20(_rewardsToken);\r\n        rewardRate = _rewardRate;\r\n    }\r\n\r\n    modifier _isExistedAccount(address account) {\r\n        bool _isExisted = false; uint flag;\r\n        for (uint i = 0; i < _stakedAddressList.length; i ++) {\r\n            if (_stakedAddressList[i] == account) {\r\n                _isExisted = true; flag = i;\r\n            }\r\n        }\r\n        if (_isExisted) {\r\n            delete _stakedAddressList[flag];\r\n        }\r\n        _;\r\n    }\r\n    \r\n    function stake(uint _amount) external _isExistedAccount(msg.sender){\r\n        _totalSupply += _amount;\r\n        _stakedAddressList.push(msg.sender);\r\n        _stakingList[msg.sender]._balance += _amount;\r\n        _stakingList[msg.sender]._rate = rewardRate;\r\n        if (!_stakingList[msg.sender].isExisted) _stakingList[msg.sender]._created_at = block.timestamp;\r\n        _stakingList[msg.sender]._updated_at = block.timestamp;\r\n        rewardsToken.transfer(msg.sender, _amount);\r\n    }\r\n\r\n    function withdraw() external {\r\n        _totalSupply -= _stakingList[msg.sender]._balance;\r\n        uint _amount = _stakingList[msg.sender]._balance;\r\n        _stakingList[msg.sender]._balance = 0;\r\n        \r\n        if ( block.timestamp > _stakingList[msg.sender]._created_at + 15 days) {\r\n            stakingToken.transfer(msg.sender, _amount);            \r\n        }\r\n\r\n    }\r\n    \r\n    function claim() public {\r\n        if ( block.timestamp > _stakingList[msg.sender]._updated_at + 15 days) {\r\n            uint _reward = _stakingList[msg.sender]._balance * _stakingList[msg.sender]._rate / 100;\r\n            stakingToken.transfer(msg.sender, _reward);\r\n            _stakingList[msg.sender]._updated_at = block.timestamp;\r\n        }\r\n    }\r\n    \r\n    function setRewardRate(uint _rate) external {\r\n        rewardRate = _rate;\r\n    }\r\n    \r\n\r\n}\r\n\r\ninterface IERC20 {\r\n    function totalSupply() external view returns (uint);\r\n\r\n    function balanceOf(address account) external view returns (uint);\r\n\r\n    function transfer(address recipient, uint amount) external returns (bool);\r\n\r\n    function allowance(address owner, address spender) external view returns (uint);\r\n\r\n    function approve(address spender, uint amount) external returns (bool);\r\n\r\n    function transferFrom(\r\n        address sender,\r\n        address recipient,\r\n        uint amount\r\n    ) external returns (bool);\r\n\r\n    event Transfer(address indexed from, address indexed to, uint value);\r\n    event Approval(address indexed owner, address indexed spender, uint value);\r\n}",
  "sourcePath": "C:\\testing\\MSDoge_Staking_Contract\\contracts\\Staking.sol",
  "compiler": {
    "name": "solc",
    "version": "0.8.0+commit.c7dfd78e.Emscripten.clang"
  },
  "schemaVersion": "3.4.3",
  "updatedAt": "2021-11-14T01:14:05.970Z",
  "networkType": "ethereum",
  "devdoc": {
    "kind": "dev",
    "methods": {},
    "version": 1
  },
  "userdoc": {
    "kind": "user",
    "methods": {},
    "version": 1
  }
}